:040000006F00D0526B
:1000040000000000000000007C0F00007E0F0000D4
:10001400000000002A0D00000000000000000000A5
:100024002A0D00002A0D000000000000000000005E
:100034002A0D0000000000002A0D0000000000004E
:100044002A0D00002A0D00002A0D00002A0D0000D0
:100054002A0D00002A0D00002A0D00002A0D0000C0
:100064002A0D00002A0D00002A0D00002A0D0000B0
:100074002A0D00002A0D00002A0D00002A0D0000A0
:100084002A0D00002A0D00002A0D00002A0D000090
:100094002A0D00002A0D00002A0D00002A0D000080
:1000A4002A0D00002A0D00002A0D00002A0D000070
:1000B4002A0D00002A0D00002A0D00002A0D000060
:1000C4002A0D00002A0D00002A0D00002A0D000050
:1000D4002A0D00002A0D00002A0D00002A0D000040
:1000E4002A0D00002A0D00002A0D00002A0D000030
:1000F4002A0D00002A0D00002A0D00002A0D000020
:100104002A0D00002A0D0000000000002A0D000046
:100114002A0D0000000000000000000000000000A4
:1001240000000000000000000000000000000000CB
:0C013400000000000000000000000000BF
:10014000397101436EC619A0397141536AC866CA34
:1001500062CC5ECE19A0397101535AD056D252D416
:100160004ED64AD826DA22DC06DE3301614082828E
:1001700041114AC026C222C406C68282B24D410144
:10018000024D924C224CB24B4101024B924A224A00
:10019000B2494101024992442244B2404101828065
:1001A0003D432A876373C3029377F700BDEFADE544
:1001B000937606FF3D8ABA960CC34CC30CC74CC756
:1001C0004107E36BD7FE11E28280B306C3408A0683
:1001D0009702000096966780A6002307B700A30643
:1001E000B7002306B700A305B7002305B700A30493
:1001F000B7002304B700A303B7002303B700A3028B
:10020000B7002302B700A301B7002301B700A30082
:10021000B7002300B700828093F5F50F9396850011
:10022000D58D93960501D58D61B7939627009702DA
:10023000000096968682E78086FA9680C1171D8F09
:100240003E96E374C3F8A5B783A7818009671307B7
:1002500007F4B3D7E702C207C183239DF180239C33
:10026000F1808280B7F700E0D843799BD8C303D7E9
:1002700081813306A702814690CBD4CB9843136784
:10028000070198C398431367170298C3B7F700E0B4
:10029000DC43858BE5DF37F700E01C43F99B1CC38B
:1002A0008280EFF2FFEC01112A848545116511056A
:1002B000EF00A07793070020FC828D473ECCE147FA
:1002C0003ECE4C083715014013050580D52A22C2C1
:1002D0002314010023150100231601002318010037
:1002E000A1477C874C003744014013050480EF0090
:1002F0009012854513050480EF005020056159BD1B
:10030000EFF27FE5AE84B289014439A81389140065
:1003100083850400C205C18137450140130505806E
:10032000EF00501F0504CA84635C34019305000488
:100330003745014013050580EF00501E65D9F9B718
:100340004E85A1B5B707002003A7071F3A959387ED
:10035000C1CE636EF500B75700209387078063EA2C
:10036000A700B707002023A8A71E3A8582807D57E3
:10037000EDBF7D57DDBF03A5018282801C4141672F
:100380007917F98F1CC1232005002322050023249F
:10039000050023260500B7070240A107630CF504FA
:1003A000B7070240F107630EF504B70702409387D1
:1003B0000703630FF504B7070240938747046302FE
:1003C000F506B7070240938787056303F506B7076D
:1003D00002409387C7066305F506B7070240938777
:1003E00007086307F506B7070240938747096309C3
:1003F000F5068280370702405C4393E7F7005CC351
:100400008280370702405C4393E7070F5CC382801A
:10041000B7060240DC420567130707F0D98FDCC23C
:100420008280370702405C43BD66D58F5CC3828003
:10043000370702405C43B7060F00D58F5CC382804C
:10044000370702405C43B706F000D58F5CC382805B
:10045000370702405C43B706000FD58F5CC382802C
:10046000370702405C43B70600F0D58F5CC351B735
:100470001C4161773D077D8F9C459451D58F9449F0
:10048000D58FD449D58F944DD58FD44DD58FD45198
:10049000D58F9455D58FD98F1CC1DC455CC19C414B
:1004A0001CC5DC415CC5828091C51C4193E71700E7
:1004B0001CC182801C4141677917F98F1CC1828061
:1004C0009C4593F8F700C18B81C7DC41B3E8F80085
:1004D0009C21B9CB03280500014719A05CC9050779
:1004E0009D4763E1E7048547B397E7009621FD8EBA
:1004F000E397D7FE13162700BD46B396C60093C6F2
:10050000F6FF33F806013396C800336806019445B8
:1005100013068002E384C6FC13068004E391C6FC44
:100520001CC975BF232005019A219307F00F63F0C2
:10053000E70603284500014721A05CC981A0050703
:100540009D4763E4E704130687008547B397C70018
:100550009621FD8EE395D7FE13162700BD46B39670
:10056000C60093C6F6FF33F806013396C800336819
:100570000601904593068002E301D6FC9045930660
:100580008004E31ED6FA1CC95DBF232205018280C8
:1005900019C20CC982804CC98280370700C0B3776A
:1005A000E5006385E70437070040638EE70C63903E
:1005B0000712B7070140DC43135705013D8B1316A3
:1005C00005014182B70630003378D500630BD80CA3
:1005D0009316B50063DE060E8D463397E60013478B
:1005E000F7FF7D8FB7070007D98FF9A037070140C4
:1005F0005C43544F1357B5011D8B1DE7F99B37071B
:1006000000FF7D17F98E89C9131705014183D98F22
:100610003707FF01798DC98E37070007D98F370754
:1006200001405CC354CF828005466305C70209467A
:100630006308C7020D46630BC7021146630EC7026B
:100640001546E312C7FC93F7F7CF3707E0FF7D1796
:10065000F98E55BFF59B370780FF7D17F98E65B77B
:10066000ED9B3707E8FF7D17F98E71BFDD9B3707DC
:10067000FCFF7D17F98E41BF93F7F7F33707C0FFF3
:100680007D17F98E49B7B7070140D84F4205934708
:10069000F5FFF98F99C1B367A700370701405CCF19
:1006A0008280370700F97D17F98F370801408326CC
:1006B0004800758F2322E80081C955811375F53FE5
:1006C00012053315A600C98F370701405CC382802D
:1006D0001357550112073317E6001347F7FF7D8FB5
:1006E000B7070007D98FC9BFEFF29FA8411102C217
:1006F00002C402C637F4FF1F832744721397970181
:10070000B706003E758F93C6F7FF13969600B705A0
:1007100000016D8E518F860737063E00F18FBD8236
:100720004166F18ED58FD98F23A2F182035784724F
:10073000239EE1800327047223A4E18203274470EF
:1007400023A0E18285451305D003C5248327447087
:1007500093F7F7F037073A10130707706383E71230
:1007600037073A1013070770637DF70637073B100A
:1007700013070770638CE70A37073D1013070770EC
:100780006394E70A85452165093DE1777C829304FE
:10079000800426C64C0037140140130504800D3335
:1007A0008567938787337C8226C64C00130504C077
:1007B000013B91477C82930780023EC64C001305A3
:1007C00004C0FD39F9777C8226C64C0037150140FC
:1007D000C5398D477C8226C64C0013050440CD31B7
:1007E000A1A03707321013070770639FE702854502
:1007F00021656533930700E07C821304800422C6E0
:100800004C00B7140140138504C05D3989677C82B0
:1008100022C64C003715014065318D477C8222C6C7
:100820004C001385044069394101ADB2E1777C8207
:100830009304800426C64C0037140140130504803D
:100840004131930700207C8226C64C00130504C06A
:10085000853991477C82930780023EC64C00130580
:1008600004C0B939F9777C8226C64C00371501409F
:1008700081398D477C8226C64C001305044089319E
:1008800065B7E1777C829304800426C64C00371458
:100890000140130504802D318967E5177C8226C647
:1008A0004C00130504C0293991477C8293078002CC
:1008B0003EC64C00130504C02131F9777C8226C660
:1008C0004C0037150140ED3E8D477C8226C64C001A
:1008D00013050440F53689BF23A6A1828280B7178D
:1008E0000240DC43B18B1147638DE70221476381EE
:1008F000E70A99C7B7177A00938707201CC13DA064
:10090000B71702409C43918B99C7B7470F00938755
:1009100007241CC121A8B7177A00938707201CC1A0
:1009200031A0B7177A00938707201CC13716024001
:10093000584211833D8BB7070020938707003E97ED
:1009400018231441B3D6E60054C1584221831D8BAD
:100950003E97182333D7E60018C558422D831D8BC8
:10096000BA979C23B3D7F6005CC55842634E07087C
:1009700037170240584339839376370013874180F5
:10098000369718231377F70FB3D7E7021CC9828075
:10099000371702405C435843C166758FC983BD8BCE
:1009A0008907C5466381D7020DEB3747024003270D
:1009B0000780418B19CB37177A0013070720B387BD
:1009C000E7021CC1A5B7C947C5B737173D001307D4
:1009D0000790B387E7021CC191BF37170240584305
:1009E0009316E70063DA060037173D0013070790F8
:1009F000B387E7021CC11DBF37177A001307072012
:100A0000B387E7021CC11DB714C9828099C5371787
:100A100002405C4B5D8D48CB8280371702405C4BB7
:100A20001345F5FF7D8D48CB828099C5371702406D
:100A30001C4F5D8D08CF8280371702401C4F134535
:100A4000F5FF7D8D08CF828099C5371702405C4F36
:100A50005D8D48CF8280371702405C4F1345F5FF0C
:100A60007D8D48CF82801E21C207C1833737014068
:100A7000130707C06300E50237070040630CE50079
:100A8000130707406308E500371700401307078086
:100A90006316E50093F7F7F8FA21D98F93F7F7CFAC
:100AA000C207C1839A25D98F1EA1B717004093872B
:100AB0000780630FF5009E215EB5DE211EB5B737B6
:100AC0000140938707C06308F50085475EA98280CF
:100AD0009C415CD5DDB7BC251EB9C5BF1E31C20720
:100AE000C183BD9BC207C1831EB11E31C207C18332
:100AF000522142064182162D65771307F7CFF98EF2
:100B0000DA21220742074183558F93F7F7FDB62577
:100B10009206C206C182DD8EFE219207C207C18302
:100B2000D58FB7360140938606C0630ED50052A11B
:100B30001AAD37170040130707806306E5049A21B2
:100B400018DD1EB1828093F7F7F7D6259206C2060C
:100B5000C182D58F93F7F7FB96259206C206C18214
:100B6000D58FFD769386F63F3378D600F6258A0634
:100B7000139606014182B366060192290A064206CF
:100B80004182558E6DB7984118DD65BF91C51E2114
:100B900093E717001EA182801E21C207C183F99B23
:100BA000C207C1831EA1828091C983574504617722
:100BB000D98FC207C1832312F504828003574504ED
:100BC000A167FD17F98F2312F504828009C65E25FF
:100BD000DD8D4EA582805E2593C5F5FFFD8D4EA56A
:100BE000828091C51E2193E707081EA182801E21E5
:100BF000C207C18393F7F7F7C207C1831EA18280A2
:100C00001A2DFD779387F77FF98FA205C205C18161
:100C1000DD8D0EAD8280EFF2AFD501112A84AE8456
:100C20001629FA21F577FD17F58FD98F1EA95225C0
:100C3000D6219A25BE25D98ED58F7D771307379F6C
:100C4000718FD98F5EA55E29C207C183DA2593F71C
:100C5000F7CFD98F5EA968005931B7470140938714
:100C600007806303F406D2465E24C207C18763CFC0
:100C7000070413971600369793173700B6979840D6
:100C80000A07B3D7E70293054006B3D6B702139617
:100C90004600370700107D17F98EB386B602958F90
:100CA0005A2442074187634F07029207938727031D
:100CB00013074006B3D7E702BD8BD18FC207C183AC
:100CC0001EA405616FF00FCDE24679BF9397160021
:100CD000B69713973700B307D70098400607B3D7E6
:100CE000E70255B71397370013072703930740060A
:100CF0003357F7021D8BB367C700C9B791C55E258F
:100D00000967D98F5EA582805A25F977FD17F98F7B
:100D10005EA5828093F5F51F4EA182801E21FD8D78
:100D200099C1054582800145828001A0970100207C
:100D3000938141CC174100201301C12C178500007D
:100D4000130505AE97F5FF1F9385C52B138681818B
:100D500063FAC5008322050023A055001105910503
:100D6000E3EAC5FE138581819385C1CE6377B50023
:100D7000232005001105E36DB5FEFD42739002BC12
:100D80008D4273904280930280087390023097F2F4
:100D9000FFFF9382622793E2320073905230EF009C
:100DA0004034970200009382E21D73901234730066
:100DB0002030EFF2EFBB79712A89AE84328402D2FF
:100DC00002D402D602C802CA02CC02CE02D002C2AB
:100DD00002C402C685451145893985450545AD31B1
:100DE00089472312F102E1473ED68D473ED44C108D
:100DF0003715014013050580EFF08FEC4AC264847B
:100E00002316010023150100230701004C003705BC
:100E10000040913993070006FC828547FC8322C875
:100E2000231D01000C08370500404D398145370569
:100E30000040F933854537050040653345616FF063
:100E40006FB5EFF24FB179712A84AE893289B684D9
:100E500002C202C402C602C802CA02CC02CE02D03A
:100E600002D202D402D6854505454D362285EFF0E3
:100E7000EFD04EC24AC4C1473EC626C802CA930735
:100E800000083ECC930700203ECE930700403ED0A2
:100E9000930700023ED28D673ED402D64C002285D5
:100EA000EFF00FDD85452285EFF00FE045616FF033
:100EB000CFADEFF2EFAB81465DA049461398260017
:100EC00013878183429710C38506C206C1828507B6
:100ED00093F7F70F1D47636BF70018313317F700CF
:100EE0001377070879DB13068002C9BF814731A851
:100EF00049461398260013878183429710C38506BD
:100F0000C206C182850793F7F70F1D47636BF70091
:100F100018213317F7001377070879DB13068002CF
:100F2000C9BF814731A8494613982600138781839A
:100F3000429710C38506C206C182850793F7F70F53
:100F40001D47636BF70038213317F7001377070845
:100F500079DB13068002C9BFFD15C205C18199C1A5
:100F600081478DBF13868183B70500409385850334
:100F7000370502407105F1356FF0CFA101A001A046
:100F8000EFF20F9F41110545EFF01F954522EFF05D
:100F9000AFAB716513050520EFF0AFB083A581807D
:100FA000378500001305052BEF10600EEFF0AFBC86
:100FB000AA85378500001305052CEF10400D8545E7
:100FC0001145A534854521458D34E97793871790E0
:100FD0007C8241494AC68D4426C44C0037140140E6
:100FE00013050480EFF0CFCDFD777C824AC626C47E
:100FF0004C00130504C0EFF0AFCC2946854513051E
:10100000B003453B054693050010370500407D3E83
:101010008545370500409D3E8545370500406936CA
:10102000FD575C80A3000100230101009305F0033C
:101030000A854135014431A801442286854537158A
:10104000014013050580EFF0AFD413054006EFF023
:101050006FA17DF00544D5B7B7270240094798C373
:10106000374702408327078093E707012320F78053
:10107000B7170240D843D8C3D843D8C3D84313675F
:101080000740D8C3D843B706C1FFFD16758FD8C334
:10109000D843B7062800558FD8C39843B706000138
:1010A000558F98C3B71702409C4313976700E35BC3
:1010B00007FEB7170240D843719BD8C3D8431367C4
:1010C0002700D8C3B7170240DC43B18B2147E39B0D
:1010D000E7FE8280EFF2CF89EFF00FE1B53F6FF0CE
:1010E0006F8BEFF2EF88B717024098431367170032
:1010F00098C3D843B706FF08758FD8C39843B7067F
:10110000F7FEED16758F98C39843B706FCFFFD16E2
:10111000758F98C3D843B70601FFFD16758FD8C3E6
:1011200037079F0098C77D376FF0CF86B71702400B
:10113000DC43B18B11476380E70421476386E706F0
:1011400081CBB7177A009387072023A4F18015A8D5
:10115000B71702409C43918B81CBB7470F00938711
:10116000072423A4F18031A8B7177A0093870720BA
:1011700023A4F18039A0B7177A009387072023A40E
:10118000F180B7170240DC43918313F7F700B707EC
:10119000002093870701BA9794239387818098430F
:1011A0003357D70098C38280371702405C435843B7
:1011B000C166758FC983BD8B8907C5466382D70217
:1011C0001DEB3747024003270780418B01CF3717BC
:1011D0007A0013070720B387E70223A4F18055B7ED
:1011E000C947F9BF37173D0013070790B387E702D8
:1011F00023A4F18079B73717024058439316E700CC
:1012000063DB060037173D0013070790B387E7023B
:1012100023A4F180BDB737177A0013070720B387DF
:10122000E70223A4F180B1BF797122D44AD052CC15
:1012300056CA5AC806D626D24ECE3A8AAE8A3284CA
:101240003689428B014763580600370700803344D4
:10125000C7001307D0022380E70093F4F8FD93073B
:1012600060048D466388F4009307500489466393B5
:10127000F4000509DA879308C100130881004A8742
:10128000D6852286EF10B07F93077004AA896396F3
:10129000F400137A1A00630A0A0493076004338A7D
:1012A00029016397F40203C7090093070003631E33
:1012B000F700014681465685A285EF50302811C5BA
:1012C00085473389274123202B0183270B003E9A32
:1012D000014681465685A285EF50502611E152C63F
:1012E00013070003B24763E24703B2474257B250C5
:1012F0002254B38737411CC34E8592540259F24998
:10130000624AD24A424B456182809386170036C6B4
:101310002380E700C1BF2300C50013072500930702
:10132000B00263D60500B305B0409307D002A30016
:10133000F500A54763DAB70441119307F100BE88B1
:10134000294813033006B3E605031386F7FF938697
:101350000603A38FD7FEB3C60503634DB300938680
:101360000603F917A30FD6FE63E917013305A7405B
:1013700041018280B287B685F9B7850783C6F7FF3A
:101380000507A30FD7FECDB793070003130745004A
:10139000938505032301F500A301B5003305A7409C
:1013A000828019713ACE86DEA2DCA6DA2E84CAD8F3
:1013B000CED6D2D4B689DAD0DECEE2CC3289D6D23D
:1013C000E6CAEAC8EEC6AA84EF30A05D832B05000A
:1013D0005E85EF001055032B0400724702DC937604
:1013E0000B102A8C034A84011C43F1CA93864700E0
:1013F00014C39C43081098433AD0D8433AD2984734
:101400003AD4DC473ED6EF60B03D28C46CC4832C90
:10141000C404177700001307E7EB832A8404032D25
:101420000700832D470093971C0085836A86EE860C
:101430005685BE853ECEEF60A06C41EDF2476A86D0
:10144000EE865685BE85EF50F0206354A008014615
:1014500081465685E685EF50F01F635605009307D9
:10146000D002A301F40493077004977A0000938AD2
:10147000EAE663F64701977A0000938A6AE6137BEF
:10148000BBFF8D47232064011CC8014B4E87CA86D1
:101490007018A2852685F126FD5C631C95157D5587
:1014A000F6506654D6544659B659265A965A065B93
:1014B000F64B664CD64C464DB64D096182809D0771
:1014C000E19B9386870014C39843DC4338C47CC4F3
:1014D0003DBF5686E6865685E685EF60606211CD93
:1014E00093077004977A0000938ACADFE3F947F9FB
:1014F000977A0000938A4ADF59B75C407D57137D85
:10150000FA0D6393E70899475CC0544013670B409A
:101510003C18D6853EC018C09307310302C2D2885A
:101520001308410366862685013393077004AA8A4F
:10153000D255631BFD00F55763C5F5005C4063D7CA
:10154000B708791A137AFA0F9307500663E547052F
:10155000FD155286130504052EDA753B6257854644
:101560002A8BB307A7001CC863C5E6001840058B8B
:1015700019C385071CC883473103E38907F0930724
:10158000D002A301F40419B713077004E31FEDF6AA
:10159000ADFF854795BF93076006631BFA025C4069
:1015A000635BB0000CC881E71840058B09CF850745
:1015B000AE971CC809A889E718408546058B19C352
:1015C0009386270014C82CCC014B75B7130A7006FC
:1015D000E25763C9F5001C400CC8858BEDD7938793
:1015E0001500C1BF05476344B00009470D8FBA9786
:1015F000C9B71C4013F7074015E314485686CA853F
:1016000026858299E30D95E91C40898B6396072412
:10161000F2574844E356F5E83E8559B5130750069E
:10162000637B471928446C4401468146EF500071A2
:1016300039E9854617760000130646CBCA8526850C
:101640008299E30E95E55257E2576345F7001C4037
:10165000858BDDDBE2865E86CA8526858299FD570D
:10166000E30FF5E2014A930AA4017D5BE257FD17FF
:10167000E35CFAF885465686CA8526858299E3009A
:1016800065E3050AE5B7D2576346F0068546177647
:1016900000001306A6C5CA8526858299E30195E157
:1016A000D2576257D98F81E71C40858BB1DFE28624
:1016B0005E86CA8526858299FD57E302F5DE014ADA
:1016C000130BA401FD5BD257B307F040634BFA0044
:1016D000E2565686CA8526858299FD57E316F5F2AD
:1016E0007DBB85465A86CA8526858299E30975DBC6
:1016F000050AD1BF3C4C625A63D347013E8A635A04
:101700004001D2865686CA8526858299FD57E30810
:10171000F5D8814C130DA401FD5D09A885466A86A4
:10172000CA8526858299E30CB5D7850C032B8405E1
:10173000D28763530A008147B307FB40E3C0FCFE36
:101740005257E257634DF7021C40858B8DEBE257F1
:101750005257338AE7406344EB00338A6741635B47
:101760004001D28633866A01CA8526858299FD5753
:10177000E307F5D2814A130BA401FD5B15A0E286B5
:101780005E86CA8526858299FD57E312F5FC01BB6A
:1017900085465A86CA8526858299E30275D1850ACF
:1017A0005257E257998F528763530A000147998F26
:1017B000E3C0FAFE91BDE25605476344D700858B2E
:1017C000B5C785465686CA85268582997D5AE3081F
:1017D00045CDE2865E86CA8526858299E30145CDA0
:1017E00028446C4401468146EF5040551DC9E256DD
:1017F00013861A00CA85FD1626858299E30145CB1A
:10180000DA8613060405F9B585465686CA85268507
:101810008299E30675C9050AE257FD17E346FAFE09
:10182000C5B7014A930AA401FD5BFDB785465686FC
:10183000CA8526858299E31595FD95B1854656861C
:10184000CA8526858299E30C65C5050A5C447257F2
:10185000998FE345FAFE6DBB014A930A94017D5BC3
:10186000F5B7797156CA9C49BA8A984522D426D2CE
:101870004ECE52CC06D64AD05AC85EC6AA892E840D
:10188000B284368A63D3E700BA879CC00347340426
:1018900019C385079CC01C4093F7070281C79C4071
:1018A00089079CC00329040013796900631A0900A1
:1018B000130B9401FD5B5C449840998F634CF904D1
:1018C0001C408346340493F70702B336D000A5EBDF
:1018D00013063404D2854E85829AFD576303F504BE
:1018E0001C4011469840998B544481446397C7002B
:1018F000B384E64063D3040081441C441848635415
:10190000F700998FBE94014969047D5B63982405B3
:10191000014509A885465A86D2854E85829A631E5E
:1019200075017D55B250225492540259F249624ACF
:10193000D24A424BB24B456182800509ADBF3307A5
:10194000D40013060003A301C7040347540493877C
:101950001600A2978906A381E7049DBF85462286CB
:10196000D2854E85829AE30E65FB050945B77971EC
:1019700022D426D24AD04ECE06D652CC56CA5AC807
:10198000B68983C68501930790063289AA842E847E
:1019900013863504638DF60263E2D706930780054C
:1019A0006388F61863EDD70063810622930730043D
:1019B000638FF60A930A24042301D404D1A0930769
:1019C00030066386F60A93074006E395F6FE1C4050
:1019D000084393F6070893054500CDC61C410CC388
:1019E00063D807001307D002B307F040A301E40453
:1019F000977600009386C68F294775A8930700073E
:101A00006384F61663E5D7029307E006638BF61846
:101A10009307F006E390F6FA0C401C4313F8050810
:101A2000138547006308080608C39C4395A89307DD
:101A30005007E383F6FE93078007638BF612930744
:101A40003007E399F6F61C43D04181459386470061
:101A500014C383AA07005685EF30200A01C5330559
:101A6000554148C05C401CC8A301040471A81C4334
:101A7000930A2404938647009C4314C32301F4046F
:101A80008547D5B793F607041C410CC3B1DAC207EA
:101A9000C187B9B793F5050408C3C1D983D7070037
:101AA0001307F0066387E60E977600009386468458
:101AB0002947A30104044C400CC463C50500084039
:101AC0006D9908C099E3B28A91CDB28AB3F5E70265
:101AD000FD1AB69583C505002380BA00B3D5E70289
:101AE00063FFE70AA147631EF7001C40858B91CB7B
:101AF00058401C4863C7E70093070003A38FFAFE12
:101B0000FD1A3306564110C84E87CA867000A2855A
:101B10002685813B7D5A631E450B7D55B25022546C
:101B200092540259F249624AD24A424B456182803C
:101B3000A382D504976600009386867B0C400843F9
:101B400013F805081C411105630D080208C313F7BB
:101B5000150001C793E505020CC04147B9FB0C40D5
:101B600093F5F5FD0CC0B1B79C4193E707029CC10A
:101B700093078007A302F404976600009386867893
:101B800075BF13F8050408C3E30308FCC207C1834B
:101B90007DBF976600009386A675214719BFAE8763
:101BA00035B794411C43CC4913F806081385470008
:101BB0006306080008C39C438CC301A808C393F6BE
:101BC00006049C43F5DA2390B70023280400B28A68
:101BD00025BF14485686CA8526858299E30F45F3AA
:101BE0001C40898B8DE7B2474844E359F5F23E85A6
:101BF00035B785465686CA8526858299E30F65F1F5
:101C0000050A5C443247998FE345FAFEE9BF014A71
:101C1000930A94017D5BF5B79C451D71A2CCCEC69D
:101C2000DAC066DA86CEB28CA6CACAC8D2C4D6C218
:101C30005EDE62DC6AD86ED61386F7FF1307C01526
:101C4000368BAA892E8481466377C700938637EA4C
:101C50009307D0159CC51C40930AC401D68493E712
:101C600007781CC00149814D014C014A014D814B4F
:101C700013069004130800708548930E0040094332
:101C8000130E50061D4F18441DCB83A70C0083C7AD
:101C90000700638BC7126368F60C9305900363E437
:101CA000F50A9305100363FBB7149305D002638311
:101CB000B71663E3F5041307B002638DE7146306F8
:101CC0000D001C4093F7F7EF1CC0FD1D854763EB2B
:101CD000B72163ED9A1E0549F64066444A85D6440D
:101CE0004649B649264A964A064BF25B625CD25C8C
:101CF000425DB25D256182809305E002638FB71477
:101D000093050003E39DB7FA0C4013F505107DC55C
:101D100093F5F5F70CC0050D81C60507FD1618C42F
:101D20001C44FD171CC41C4885071CC883A74C0015
:101D3000FD1723A2FC006356F01683A70C0085074D
:101D400023A0FC0089B7130750046382E71213072E
:101D50006004638BE70E13071004E392E7F6E39049
:101D60001DF7894D65A06384C7116361FE041307E5
:101D70004005638FE70C6364F7021307E004E39008
:101D8000E7F463910D0A63110D0A1840937507700B
:101D9000639C05091377F78718C0854D85A813073D
:101DA00090056389E7041307100645BF1307E00693
:101DB000E389E7FC6368F702130760066386E708B8
:101DC00013079006E39DE7EE63190906E31B0DEE8A
:101DD000184093750770E39A05EF1377F78718C0DB
:101DE00005492DA0130740076384E70613079007F2
:101DF000E397E7ECE315E9ED214909A833872D01C5
:101E0000E31F07EA18401377F7E718C02380F400B0
:101E1000850439B7184093750708E38205EA1377FC
:101E2000F7F7E5B7638D6D06630519011147E318F0
:101E3000E9E805091379F90FD1BF1307D9FF137723
:101E4000D70FE31E07E6F5B7E31B69E60D497DBF33
:101E50001947E316E9E61D4955BF18409375072059
:101E6000E38F05E41377F7D718C0EA8B45B718401E
:101E7000937507506388D50193750740E38105E4A6
:101E8000E3050DE49375072081E5330A7D41268C37
:101E90001377F7871367071818C0014D85BF8D4D5D
:101EA000B5B783270418E6854E8536C68297B246B5
:101EB00013069004130800708548930E00400943F0
:101EC000130E50061D4FE30005DCD5BBFD14832720
:101ED000C41783C5040066864E8582971C48FD178B
:101EE0001CC8C5BB9307F9FF19476366F70289470A
:101EF000A68D63F12709330799401377F70F8D46B5
:101F0000B387ED0093F7F70F63ECF60275191379B9
:101F1000F90FB38424411C4013F7071045C393F70E
:101F20000740A1CFE3F99ADAFD148327C41783C5CC
:101F3000040066864E8582971C48FD171CC8DDB7D5
:101F4000FD1D8327C41783C50D0066864E853AC6DE
:101F500082971C488D463247FD171CC855B7FD14A3
:101F60008327C41783C5040066864E8582971C4864
:101F7000FD171CC8E3E59AFEB9BB1C4883C5F4FFF6
:101F80001389F4FFFD171CC8930750066382F502FE
:101F900093075004638EF5008327C41766864E8529
:101FA00082971C4883C5E4FF1389E4FFFD171CC812
:101FB0008327C41766864E858297CA840329040046
:101FC000137909016313090C238004001C401307D3
:101FD000004093F70760639EE7023386AB41639648
:101FE000AB05D68501464E85EF00706118402A8A00
:101FF000AE8A9376270083270B00A9C61387470074
:102000002320EB009C4388C3CCC35C4485075CC49D
:10201000E1B1E3080AFC0146A94693051C004E8580
:10202000EF00907333064541E2849307F41663E4AE
:10203000F4009304E416976500009385E52D26854A
:10204000712845B7938647002320DB00118B84431A
:1020500019CFAA8556860808EF50F047D246624746
:10206000F2474246D4C098C490C0DCC479BF2A86E7
:10207000AE86EF50F02809C50145992888C071B790
:102080005285D685EF50305FD5BF0149B1B1397166
:102090003EDA2ED232D436D63AD842DC46DE9387A8
:1020A000C18022CC804326CA06CEAA8411C41C4C0F
:1020B00081E72285EF2080040C4454102686228577
:1020C00036C6EF303020F2406244D2442161828033
:1020D000976700009387C7248843828035713ECB81
:1020E000B707008093C7F7FF3ECE3EC8C1779387FE
:1020F000872032C536C73AC942CD46CF3ECA9387FC
:10210000C1802AC42ACC884334012E862C0086DE66
:1021100036C2EF30806CA24723800700F6500D6175
:102120008280AA87850703C7F7FF6DFF3385A74025
:102130007D158280011122CC2A872E843A85A285C2
:1021400032C606CEEF30801432462A88AE8805C6E5
:1021500051801374F47F9307B006818F635DF000A4
:10216000D2073707F03F01483E974286BA86EF40D4
:10217000D0592A88AE88F24062444285C6850561FE
:10218000828035714AC92A89368532D436C606CF4F
:1021900022CD26CB4EC7EAD8EED62E8D52C556C3D9
:1021A0005AC1DEDEE2DCE6DA82C8EF20207FAA8DAB
:1021B000084181440144B537B246AA89EAC635468A
:1021C0009305B0021305D00213080002A548B647D4
:1021D00003C70700636BE608637F17095DC702C882
:1021E000364A93070003814A03470A00631DF7122A
:1021F00083471A00130780056388E70013068007EA
:10220000130700036397C710C24736889808D4089D
:102210001766000013060617EC004A85EF204010F1
:1022200093797500AA8A6388090099476398F9062B
:10223000050AD2C602C8A25781C7B64722571CC397
:10224000C247A1CBB7050080A18DFA406A4426851C
:102250004A49DA44BA492A4A9A4A0A4BF65B665C0A
:10226000D65C465DB65D0D6182806309B70063048C
:10227000A702E31607F78507BEC691BF02C81387FA
:102280001700BAC683C71700A1FFA257EAC602C843
:10229000CDF7A2855DBF05473AC8D5B7464611CAF6
:1022A00093055003A808EF308022C6454A85EF20E9
:1022B000701AFD19914763EE370117670000130785
:1022C00067068A09BA9983A70900BA978287E64404
:1022D000764493FA8A00E3800AF6B70700805D8CA3
:1022E00099BFF6453704F0FF7D14B3F785005644D7
:1022F000E644130434439315440133E4B700D1BFDB
:102300003704F07FF9B7B705008013C4F5FFFD541B
:10231000C9B7B64793861700B6C683C71700E38AC6
:10232000E7FE91DB854AB64C014A814B014CA5463C
:10233000A145A9473645034B050013070BFD13764E
:10234000F70F63FDC60483A50D004E86EF30D02F36
:102350003DC1DA87E28D8146014B014513075006E6
:102360006387E7001307500481496399E716639672
:102370000D00B3E7560191DB814D364D1307B002D6
:1023800093071D00BEC683471D006382E70E130737
:10239000D00201486393E70E0548D9A863C98501B7
:1023A000B38BFB02BA9B0505050CAAC661B7330ABD
:1023B000FA023A9ACDBF364581464E95AAC6834762
:1023C0000500630D0C06014BE28D138707FD2546C2
:1023D0006376E602054559B7B647850613861700AA
:1023E000B2C683C71700E389E7FE1387F7FC2146CF
:1023F000E36AE61EB64C368B814D8146938707FD16
:102400001387160085C73A9B3385B6016E8721482E
:10241000C14829466317A702850DB69DA14663CF23
:10242000E6022947B38BEB020147BE9BB647938672
:102430001700B6C683C71700BA8641BF130700034B
:102440005DB7930517006346E800B38BCB022E8778
:10245000D1B7E3CEB8FE330ACA02D5BFC1460147A1
:10246000E3C6B6FDA946330ADA023E9AC1B701486F
:1024700093072D00BEC683472D00138707FD254611
:102480006367E60C130700036386E70A1387F7FC0C
:10249000214681496364E604B648138707FD254356
:1024A000294EB64713861700B2C683C71700938517
:1024B00007FD93F5F50F6376B3089569330616416A
:1024C0009389F9E1A148CE8563C6C800BA8963D370
:1024D000E500AE8963040800B309304163980D0C30
:1024E000B3E6DA00E39906D4E31105DA1307E00452
:1024F000638AE7066340F70613079004E397E7D87B
:1025000097650000938505E7E800EF200030E30EB3
:1025100005D6B64797650000938505E6E800FD17E8
:10252000BEC6EF20802E01E5B6478507BEC637043C
:10253000F07F11B3B64713861700B2C683C71700E2
:10254000A1B73307C703BA97138707FD99BFEAC638
:10255000814969B713079006E384E7FA1307E00699
:10256000E395E7D297650000938585E1E800EF20C9
:10257000C029E30C05D0B64703C7070093078002C4
:102580006313F702B008976500009385E5E0E80063
:10259000EF20A02A95476318F500F6453704F07F31
:1025A000E6444D8C49B93704F8FF71B1B38A6941EB
:1025B00063130C006E8CC1476E8D63D3B701414D20
:1025C0005E85EF50E06AA547AA842E8463DCB703DA
:1025D00093077DFF1397370097670000938787ED78
:1025E000BA979043D443EF4050122A845285AE8468
:1025F000EF5000682A86AE862285A685EF30D0256A
:10260000AA842E84BD4763CDB709E3860AC263540A
:1026100050075947634357038E0A97670000938713
:1026200067E9BE9A03A50A0083A54A002686A2860A
:10263000EF40B00DAA842E84FDBE1307500233076D
:10264000B741634F5705B38DB741176900001309B0
:1026500069E693973D00CA978843CC43B38DBA414E
:102660002686A2868E0DEF40500ACA9D03A60D0055
:1026700083A64D0075BFA95763C4FA02B3093B4155
:10268000139B3900976900009389C9E2DA9903A680
:10269000090083A649002685A285EF40E00E59BFB8
:1026A000338DAD41569D6357A0119377FD0099CFAF
:1026B00017670000130707E08E07BA978843CC43DB
:1026C0002686A286EF407004AA842E84137D0DFF17
:1026D00063080D0A9307401363D5A705014B814991
:1026E00002C6814B930720022320F9003704F07FB4
:1026F0008144B247E38107B4C6454A85EF2080553F
:10270000DE854A85EF200055CE854A85EF2080542E
:10271000B2454A85EF200054DA854A85EF20805380
:1027200019BE135D4D402685A2858147014A0548A3
:1027300097680000938888D56346A80599C3AA8442
:102740002E8417670000130767D493173A00BA97CF
:102750008843CC433707B0FC22972686BA86EF40E1
:10276000C07A3704F07FB377B4003707A07CAA841F
:10277000E366F7F63707907C637AF7027D14FD5421
:10278000014ADDA813771D0011CF13173A004697B1
:1027900010435443EF406077854705489768000031
:1027A0009388C8CE050A135D1D4079B737045003DE
:1027B0002E94F9B7E3060DFC330DA0419377FD008D
:1027C00099CF176700001307E7CE8E07BA9790439B
:1027D000D4432685A285EF30307BAA842E84135DF6
:1027E0004D40E30F0DF8FD4763DDA701014B814923
:1027F00002C6814B93072002814401442320F90043
:10280000CDBD137A0D0163040A00130AA0062685C4
:10281000A28597670000938767B9014793761D00EB
:1028200081CA9043D4433EC6EF40206EB24705476D
:10283000135D1D40A107E3130DFE19C3AA842E8466
:1028400063050A029357440113F7F77F9307B00615
:10285000998F635CF0007D476354F72213074003B0
:1028600081446359F7203704700301468146268569
:10287000A285EF40A04C3DD95E87EE866286E68554
:102880004A85EF20A04A2AC6E30A05E493D7FA4115
:10289000B3093B41B3F7F9003ED056CE63D30A00EB
:1028A00002CEB247014B8149B1073ED8B7071000AD
:1028B000FD173ED6B2474A85CC43EF200031AA8BA4
:1028C000E30205E2B247C2553105904B09060A06FC
:1028D000EF204024B808D4082286A6854A8526CA57
:1028E00022CCEF20502AAAC8E30E05DE85454A8592
:1028F000EF20E058AA89E30705DED64763C707182B
:102900000257724C338DE7006647B3874741930601
:102910006003BA97FD17930D20C0998E63D6B7193F
:102920003387FD407D46998E6346E616854DB39705
:10293000ED003ED2814C369CB30DDD00529CEA87FF
:1029400063D3AD01EE876353FC00E2876358F00068
:10295000B38DFD40330CFC40330DFD40825763586E
:10296000F002CE853E864A85EF206067AA89E30B98
:1029700005D64646AA854A85EF2020522ADAE30387
:1029800005D6C6454A85EF20E02CD257BEC8634F16
:10299000B011635A50017246DE854A85EF202064EB
:1029A000AA8BE30105D4635A8001DE8562864A85DD
:1029B000EF20C06EAA8BE30705D2635AA001CE8533
:1029C0006A864A85EF20806DAA89E30D05D0C64549
:1029D0005E864A85EF20807C2A8BE30505D0032C98
:1029E000C500CE8523260500EF2020786359050C0D
:1029F000336C9C0063110C129317C400639D071085
:102A0000B707F07FE18F3707B0066376F7108327AB
:102A10004B0191E703270B01854763DEE70EDA855B
:102A200005464A85EF208067CE852A8BEF20E0732C
:102A30006353A00E630C0A10B707F07FE18F3707CE
:102A4000B0066345F71037077003E355F7DA01471F
:102A5000B70750392685A2853A86BE86EF40E04A00
:102A60002E84C98DAA84E39905C8930720022320E8
:102A7000F90059B181177D57B317F7007D8CF5B375
:102A80007D57B317F700FD8CCDB37247025D330C51
:102A9000F7409DBD930C20BEB387FC40854CB39C92
:102AA000FC0085473ED241BD814CE5BFC6456E86E0
:102AB0004A85EF20A05EAAC8E31D05EC25B169E9AF
:102AC000370710007D17B377E40063090C0463999E
:102AD000E7047D5763000A02B707F07FE18FB7066E
:102AE000A00663E9F600D1839306B006B387F640EB
:102AF0003317F7006396E402B707F07FFD176315FD
:102B0000F400FD57E380F4BEB705F07FE18D370494
:102B100010002E948144E31C0AF2F9BEC58F99DBA4
:102B200063820C04B3FC8C00E3870CFE528626857E
:102B3000A285630F0C02EFF0EFDF2A86AE865245C6
:102B4000E245EF306051AA842E84F1B7B705F07FDB
:102B5000E18D3704F0FFA295370410007D144D8CF1
:102B6000FD5455BF9257B3FD9700E3860DFA7DBF24
:102B7000EFF04FDC2A86AE865245E245EF40700406
:102B800001468146AA842E84EF40401B49F59DB141
:102B9000CE855A85EF20700C975700009387077BEE
:102BA0009043D4432A8DAE8DEF40C02A6342A010DB
:102BB00063010C0A814D370DF03F0147B707F03F25
:102BC000B706F07FB37CD400B706E07F639FDC16C6
:102BD0006AD2370DB0FC229D2685EA853EDE3ADCBE
:102BE0006EDAEF20A06AD25812582A86AE86468541
:102BF000C285EF4080312686EA86EF30E045AA8420
:102C00003705F07F3376B500B706A07C6257F257E0
:102C10006365D60C62479307F5FF6396E70052475A
:102C2000FD57E381E7ACB707F07F1384F7FFFD544E
:102C3000C6454A85EF200002DE854A85EF208001E7
:102C4000CE854A85EF200001DA854A85EF20800095
:102C500095B1B1E0B257E18FA1E797570000938794
:102C6000676E9043D4436A85EE85EF40A01E634DA6
:102C70000502975700009387676C9043D4436A8599
:102C8000EE85EF4080282A87AE87370D0080BA8D09
:102C9000334DFD0035B785476394F400E30C04B46D
:102CA000814D370DF0BF11BF0147B707E03FF1BFBE
:102CB00097570000938787689043D4436A85EE85D1
:102CC000EF40A0242A87AE872E8D63160C00370DA7
:102CD0000080334DBD00AA8DE5B5370450032E9416
:102CE000E3180AF4B706F07FE18EE393DCF4BE85C7
:102CF0003A853A8DBE8CEF407064EF4070702A8642
:102D0000AE866A85E685EF40C06BB2572A8DAE8DE0
:102D1000E18FC58F33EC8701630B0C0A97570000D6
:102D20009387C7639043D443EF40C012E346059CAA
:102D300097570000938707639043D4436A85EE85D5
:102D4000EF406006E356A0EE45BA630D0A04B706ED
:102D5000A00663E99605975600009386A65F904209
:102D6000D4423A85BE853ADA3ED2EF40A00E925761
:102D700052576344A0023A85BE85EF40B06211E12C
:102D80000545EF40F06E2A87AE872E8D63160C0046
:102D9000370D0080334DBD00AA8DB705B0062E9DBE
:102DA000330D9D415245E2453EDA3AD2EF20004EC6
:102DB0002A86AE866E85EA85EF4020155246E246A9
:102DC000EF308029AA842E84D257125711BF97570B
:102DD00000009387A7599043D443EF40A007E359DD
:102DE00005E419BA130750066387E7001307500478
:102DF00005456397E7EE014B05456FF08FD7938745
:102E0000C1809C43945389E697D6FF1F93868627FB
:102E10006FF02FB779714AD04ECE06D622D426D283
:102E2000AA892E899304190003C4F4FF3A8536C693
:102E300032C42EC23AC0EF101036229583471500D7
:102E400002479245A18B2246B246C9E79307D002BA
:102E50006314F40883C70400054393042900FDC6E6
:102E600041476392E60213070003639EE70083C7AE
:102E700004001307800593F7F70D6394E70C83C7ED
:102E80001400C1468904B70800806314030093C886
:102E9000F8FF33FFD80201480145A54FE54EFD522A
:102EA00033DED802138707FD63E4EF04BA8763DFDC
:102EB000D704630D58007D58636AAE006314AE00FA
:102EC0006346FF0005483385A6023E95850483C707
:102ED000F4FFC9BF2689B9B79307B0026305F400B0
:102EE000A2870143ADBF83C7040093042900D5BF67
:102EF0001387F7FB63E5EE00938797FC4DBF1387BD
:102F0000F7F963E5EE00938797FA55B7FD57631F0E
:102F1000F8009307200223A0F900468519EEB2506D
:102F2000225492540259F24945618280630403009D
:102F30003305A0406DD6630408009385F4FF0CC2EE
:102F4000F9BF93070003A1F2A14635BF13070003A1
:102F5000E38FE7F0A94605BF9387C1809C43985350
:102F600009E717D7FF1F1307E7116DB5011122CC31
:102F700026CA4AC806CE4EC6AA842E89328409C5FE
:102F80001C4D99E3EF108017975700009387074B6C
:102F9000631BF406C0401C4C1CC48357C400A18BA7
:102FA000D9C31C48C9C31C4808409379F90F137949
:102FB000F90F1D8D5C486347F500A2852685EF104B
:102FC000E00135E51C440505FD171CC41C401387B2
:102FD000170018C0238037015C486389A700835716
:102FE000C400858B89CBA9476317F900A285268584
:102FF000EF00D07E0DEDF24062444A85D244424952
:10300000B249056182809757000093872745631472
:10301000F400804449B79757000093872740E31C8A
:10302000F4F6C0448DBFA285268521202DDD7D5973
:10303000D9B741119387C18026C2844322C44AC0B4
:1030400006C62A892E8491C49C4C81E72685EF1000
:10305000E00A975700009387673E631CF402C04064
:103060000317C40093170701C18393F68700BDEED1
:1030700093F607019DEEA5472320F9001367070487
:103080002316E4007D55B240224492440249410196
:103090008280975700009387673C6314F400804454
:1030A000C1B79757000093876737E31BF4FAC04412
:1030B00045BF918B95C74C5891C9930744046385CC
:1030C000F5004A85EF20C04A232A04028357C40032
:1030D0002322040093F7B7FD2316F4001C481CC0FC
:1030E0008357C40093E787002316F4001C4889EF38
:1030F0008357C4001307002093F707286386E7006F
:10310000A2854A85EF1010118357C40013F71700EA
:1031100005C75C4823240400B307F0401CCC1C48BE
:103120000145B5F38317C40013F7070829DF93E7B8
:1031300007042316F400B9B7898B014791E3584877
:1031400018C4F1BF011122CC1C49804906CE26CA01
:103150004AC84EC652C456C263C187127D141318A2
:10316000240093894501338A0901130945014A98CE
:1031700083270A00032708008507B354F702636614
:10318000F706C1684E834A8E814E014FFD18110328
:103190000326C3FF110E33771601418233079702CE
:1031A00033069602769793560701B3771701B30754
:1031B000FF4036968326CEFF935E060133761601D6
:1031C00033F71601BA97C18213D70741918EBA9689
:1031D00013DF0641B3F71701C206D58F232EFEFE7B
:1031E000E3776AFA83270800BDCBAA8AEF10F0774D
:1031F0006349050441668504CA8501457D16910928
:1032000003A8C9FF98419105B376C800158DB37620
:10321000C700AA96935707011358080113D7064110
:10322000B3870741BA9713D50741F18EC207D58FEF
:1032300023AEF5FEE3753AFD93172400CA97984331
:103240001DC72685F2406244D2444249B249224A0F
:10325000924A056182808327080089E77D147118EE
:10326000E36B09FF00C951B7984309E77D14F117D3
:10327000E36CF9FE23A88A00E9B70145E1B775714F
:103280003ED85C5122C526C34AC1CEDED2DCE2D490
:1032900006C7D6DADAD8DED6E6D2EAD0EECE36C225
:1032A0003AC646CAAA842E843289C2892E8A328CB2
:1032B00089EF4145EF101000C8D0232205002324D8
:1032C00005002320050023260500DC508C4389CD12
:1032D000D84385472685B397E7009CC5D8C1EF1032
:1032E0007017DC5023A00700635309048547131CA3
:1032F000190023A0F900135C1C00B707F07F337797
:10330000FC006314F70642578967320C9387F77005
:10331000135CCC001CC3336C8C00E3050C32D24729
:1033200091EB975700009387270F3EC039A823A041
:103330000900E1B7975700009387070E3EC09757E3
:1033400000009387970D52471CC3BA402A44024598
:103350009A440A49F659665AD65A465BB65B265CC9
:10336000965C065DF64D4961828001468146228564
:10337000E28522CE62D4EF30701C05E142578547CA
:103380001CC397570000938767F63EC0D247D5DF2E
:1033900097570000938797F57DB7B800F4006286D1
:1033A000A285268513594C01EF10F07D1379F97F22
:1033B000AA89A64A630D0910A2577245130919C0BC
:1033C0009395C700B181B707F03FDD8D02DC9757B9
:1033D0000000938727009043D443EF30907E9757A7
:1033E00000009387A7FF9043D443EF3010329757E4
:1033F0000000938727FF9043D443EF20F0452A8BAA
:103400004A85AE8BEF40C07F97570000938707FE39
:103410009043D443EF30702F2A86AE865A85DE85DE
:10342000EF2090432A8BAE8BEF4040712A840146F7
:1034300081465A85DE85EF30F021635B05002285E9
:10344000EF40007C5A86DE86EF30500F11C17D14AC
:103450000547D9473AD663E38702131734009757D5
:10346000000093872705BA979043D4437245A2552D
:10347000EF30501E635305007D1402D633892A4174
:10348000930BF9FF014B63D60B00054B330B2B411C
:10349000814B634E0406A29B22CC814A1247A5476A
:1034A00063E5E7149547854C63D6E7009307C7FFAC
:1034B0003EC2814C12478D47630EF71063CFE7047D
:1034C000894702C8630DF70685473EC88DA0364977
:1034D0009307000256991307294363D5E7021305A2
:1034E0000004198D930729413315AC003354F400BF
:1034F000418DEF40E077B70710FEBE9585477D19F7
:103500003EDCF1B53385E7403315A400DDB7330B5E
:103510008B40B30A804002CC51B712479147630EEB
:10352000F70005473AC8124795476306F70AFD5763
:103530003EC4FD5DC94702C619A885473EC8B247CB
:103540006348F00A854705473EC4854D3AC603A93E
:1035500044021147232209009306470183254900AD
:1035600063FCD7082685EF104066DC502320A900B5
:103570009C433EC0B94763E6B71D63840C1C635E81
:10358000800A9377F40013973700935C4440975771
:103590000000938727F2BA9793F60C0198430949E4
:1035A000DC4385C697560000938646EE90527245DE
:1035B000D452A2553AD03ED2EF30001D0257925756
:1035C00093FCFC002A8A2E8C0D49175D0000130D18
:1035D000EDEB89A802C8B247A2973EC4938D1700AD
:1035E000EE87E346B0F785479DB7854C02C2E9BD3B
:1035F000B2473EC4BE8DA1BF85052322B900060790
:10360000A1BF93F61C0081CE03260D0083264D003A
:103610003A85BE85EF30700F05092A87AE8793DCA7
:103620001C40210DE39F0CFC3A86BE865285E28544
:10363000EF3080152A8A2E8C81A0094915CCB30C55
:10364000804093F7FC00139737009757000093874B
:1036500067E6BA979043D4437245A25593DC4C4039
:10366000175D0000130D8DE2EF30300A2A8A2E8C90
:103670008147639C0C12DDFFB2576387071417570D
:103680000000130727CC104354435285E28552D0E3
:10369000EF30407C635A0512638B0D12A2476350D2
:1036A000F00A175700001307E7D48257104354431A
:1036B0003E85E285EF307005A247130DF4FF2A8A9C
:1036C0002E8C050962874A853EDE52DABA8C3AD0E2
:1036D000EF400053525802573709C0FC4286BA8661
:1036E000EF30B00297560000938646D19042D44204
:1036F000528CEF207016F2572A8A2E99E1EF9757D5
:103700000000938727D0525802579043D4434285F4
:10371000BA85EF30104B5286CA862A8CAE8CEF30B9
:103720008068634AA054B7070080B3C72701528658
:10373000BE866285E685EF30E071634B0552724AC2
:10374000225CB64763C70730394763448730131795
:103750003400975700009387E7D5BA9703AB07006B
:1037600083AB4700B24763D207206340B021639127
:103770000D50975700009387E7C89043D4435A856C
:10378000DE85EF3080785286E286EF30C061814A74
:1037900001496357054A824702470504138A170007
:1037A000930710032300F70045A113F71C0009CB72
:1037B00003260D0083264D000509EF30007585476F
:1037C00093DC1C40210D75B5228DEE87E5BD228D61
:1037D0008147CDBD9386F7FF1396360097560000BC
:1037E000938646CDB2968842CC428246B6973EDA60
:1037F000C247E9C397570000938747B42A86AE862D
:103800008843CC434ADE52D0EF20107802587257DA
:1038100017590000130909BE4286BA86EF30703A84
:10382000024A2AD02ED2E6856285EF4020312ADE78
:10383000EF40003D2A86AE866285E685EF3070381F
:10384000F2572A8CAE8C2A86AE8602559255050A0E
:1038500093870703A30FFAFEEF30E0546348A00EEE
:1038600097570000938707AE8843CC436286E6866D
:10387000EF3030352A86AE8602559255EF30A05291
:103880006342A018D257E30CFAEA03260900832604
:10389000490002559255EF30406703260900832600
:1038A00049002AD02ED26285E685EF3000662A8C48
:1038B000AE8C95BF5286CA86EF302065525A0249B7
:1038C0002AD02ED2E6856285EF4040272ADEEF40DF
:1038D00020332A86AE866285E685EF30902E7257B9
:1038E000D257050913070703A30FE9FE2A8CAE8CF4
:1038F0006312F90617590000130949A403260900A9
:103900008326490002559255EF2000752A86AE861F
:103910006285E685EF3020496346A00E0256925636
:103920000325090083254900EF30B0292A86AE8699
:103930006285E685EF30005293070003E35105E00E
:103940000347FAFF9306FAFF6304F7006A8459A855
:10395000368AFDB7975700009387C7A99043D44391
:10396000EF30A05A2A8CAE8CB1BFE287BE8C824762
:10397000528C975A0000938AEAA713891700BE9DBC
:103980005A86DE866285E685EF201060EF40001BD8
:103990002A8DEF40E0265A86DE86EF3000572A86D1
:1039A000AE866285E685EF30D02193070D03A30F25
:1039B000F9FE2A86AE864A8A639E2D07EF20C069EB
:1039C0005A86DE862A8CAE8CEF30E03D634BA00237
:1039D0005A86DE866285E685EF30403601E59377CC
:1039E0001D0085E3CE852685EF10C026C257230033
:1039F0000A00050480C3D247E389079423A0470146
:103A0000A9B2228D130790038346FAFF9307FAFFAA
:103A1000639AE6008246639DF60013070003050DD6
:103A20002380E60003C7070005072380E70039BFAE
:103A30003E8AD9BF03A60A0083A64A000509EF30D3
:103A4000C04C014681462A8CAE8CEF30202F0DF9F8
:103A500051BF424763000710924605476345D70CA4
:103A600062579387374309E7264793076003998F87
:103A7000568DDA8C854526853E9BBE9BEF102040F7
:103A80002A89635E9001635C7001E68763D39B01C2
:103A9000DE87330BFB40B38CFC40B38BFB40638071
:103AA0000A04C247C5CF6354A003CA856A86268527
:103AB000EF10E0524E86AA852A892685EF10E03D58
:103AC0002ACECE852685EF10E018F247BE893386D0
:103AD000AA4111C6CE852685EF106050AA8985457A
:103AE0002685EF10C039E247AA8A635BF0063E865E
:103AF000AA852685EF10A04E12478547AA8A014D58
:103B000063C8E706014D63120A069317CC00528D75
:103B1000A9EFB705F07F337CBC0063080C04050BEC
:103B2000850B054D99A0138DFDFF63CAAA01338D46
:103B3000AA4163DE0D00B30CBB41814725BFE247BC
:103B4000B30A5D41D6973ECCEA8A014DDDB7DA8CE7
:103B5000EE870DB7568DDA8C014925B756869DBF85
:103B600012478547014DE3DFE7F8E247054589CF76
:103B700083A70A018D078A07D697C843EF1020252F
:103B8000930700023385A7405E957D8951C1930755
:103B90000002898F1147635AF706F1473385A74022
:103BA0002A9BAA9CAA9B63586001CE855A862685CB
:103BB000EF10C04EAA8963587001D6855E862685AF
:103BC000EF10C04DAA8AB257B1C7D6854E85EF1007
:103BD000C05963510504CE85814629462685EF10DC
:103BE000A00BC2477D14AA89638C0726CA8581462B
:103BF00029462685EF10400AA2472A896345F00826
:103C00001247894763D1E70829A8E38EE7F83E8584
:103C1000710579B76345B0071247894763D1E70655
:103C20006EC4A24791EFD685814615462685EF10D2
:103C3000A006AA8AAA854E85EF102053E34DA0B4B2
:103C4000B247024A13C4F7FF014BD6852685EF1011
:103C50006000E30909D863080B0063062B01DA85CD
:103C60002685EF00307FCA852685EF00B07E9DBB9C
:103C7000814A0149F1B76A84814A014929BEC24794
:103C80006EC46386071E63589001CA8566862685C2
:103C9000EF10C0402A894A8563060D02832549003A
:103CA0002685EF009072032609012A8B9305C9002F
:103CB00009060A063105EF00F0650546DA85268516
:103CC000EF10C03D824722474A8B138C1700BA97EA
:103CD0003EC693771A002A893EC4D6854E85EFF0FA
:103CE0006FC6DA852A8D930D05034E85EF10E047E8
:103CF0004A86AA8BD6852685EF10404A5045930CFC
:103D0000FCFF2A8A054711E6AA854E85EF10E0459B
:103D10002A87D28526853AC8EF00D073924742475A
:103D2000628AB3E6E700A247DD8E81EE13079003B7
:103D30006388ED0463547001930D1D032380BC015F
:103D400029B763CA0B009247B3EB7701A247B3EBE5
:103D5000FB0063950B04E353E0FECE850546268504
:103D6000EF10C033D685AA89EF1020406346A0002B
:103D700071F513F71D0079D313079003E39EEDFA55
:103D8000930790032380FC00930690038347FAFF78
:103D90001307FAFF638CD708850745A0635BE00033
:103DA00013079003E38EEDFC93871D002380FC0036
:103DB00069BDB247A30FBCFF63818705CE858146ED
:103DC00029462685EF00506DAA8981462946DA8565
:103DD000268563182B01EF00306C2A8B2A89050C8D
:103DE000EDBDEF00706BCA852A8B8146294626857A
:103DF000EF00906A2A89E5B7014BCE8505462685F6
:103E0000EF10C029D685AA89EF102036E34EA0F620
:103E100001E593F71D00ADFB930700030347FAFF8D
:103E20009306FAFFE313F7E2368ACDBF8247639920
:103E3000E70002470504930710032300F70031B59C
:103E40003A8AA9B75247974700009387275C3EC03C
:103E5000974700009387075C631707CE6FF0EFCE9C
:103E6000A2476346F00012478947E3CCE7DA024AEB
:103E7000D6854E85EFF00FAD8247050A930D0503F9
:103E80003307FA40A247A30FBAFFE357F7F6CE85F0
:103E9000814629462685EF003060AA89D1BF83D7A5
:103EA000C500011122CC26CA06CE4AC84EC613F759
:103EB0008700AA842E8479EFD841634DE000B84191
:103EC000634AE0000145F2406244D2444249B249AB
:103ED0000561828058547DD703A904009396370169
:103EE00023A0040063DE060670488357C400918B4C
:103EF00099C75C401D8E5C5899C33C401D8E5C5434
:103F00000C50814626858297FD570357C400631DD8
:103F1000F5009440F54763E9D706B70740208507C9
:103F2000B3D7D700858BADC31C48232204001CC027
:103F30009317370163D80700FD576314F5009C40C1
:103F400091E368C84C5823A02401ADDD93074404D5
:103F50006385F5002685EF10A061232A04029DB732
:103F60000C500146854626850297FD572A86E31E9A
:103F7000F5F69C40BDDB75476385E70059476394C0
:103F8000E70423A024013DBF136707042316E400C0
:103F90007D5515BF83A90501E38609F203A9050034
:103FA0008D8B23A0350133093941014791E3D8496D
:103FB00018C4E35920F11C540C50CA864E8626853D
:103FC00082976349A0008357C40093E70704231630
:103FD000F4007DBFAA993309A940E1BF9C49B9CF3C
:103FE000011122CC06CE2A8411C51C4D81E72EC6B4
:103FF0003122B2459747000093874744639BF50001
:104000004C408397C50095C722856244F240056104
:1040100079B597470000938767446394F5000C4493
:10402000CDB7974700009387673FE39CF5FC4C446E
:10403000C9BFF2406244014505618280014582802A
:10404000411122C406C62A842316B5002317C500D1
:104050002320050023220500232405002322050632
:1040600023280500232A0500232C0500214681452D
:104070001305C505EFC0CF9297270000938767D13E
:104080005CD0972700009387C7D31CD497270000E4
:10409000938707D85CD4972700009387C7DA00D0AE
:1040A0001CD8B240224441018280970500009385CC
:1040B00025F3B1A2411126C2130680069384F5FFB1
:1040C000B384C4024AC02E8922C406C6938544071D
:1040D000EF1080542A8401CD2320050023222501DE
:1040E000310508C4138684068145EFC06F8B228595
:1040F000B240224492440249410182801C4DADE30A
:10410000411106C622C497070000938747FA1CD5C1
:10411000938701819C432324050423260504232837
:1041200005046314F50085471CCD2A841D2848C06A
:104130002285052808C422852D2048C44840014610
:104140009145FD3D08440546A545DD3D48440946E9
:10415000C945FD3585471CCCB240224441018280CF
:10416000828041119387018126C284434AC006C6DA
:104170009C4C22C42A8999E3268549379384840478
:104180008044DC40FD1763D607009C40B9CF8440D3
:10419000C5BF0317C40039E7C1778507232204068A
:1041A0002320040023220400232404005CC42328C9
:1041B0000400232A0400232C040021468145130512
:1041C000C405EFB0FFFD232A0402232C040223249C
:1041D0000404232604042285B24022449244024966
:1041E000410182801304840671BF91454A85D93507
:1041F00088C051FDB1472320F9000144E9BF79711E
:1042000022D44AD052CC56CA5AC85EC606D626D246
:104210004ECE2A8AAE8A130485040149054BFD5B04
:1042200009ECB25022544A8592540259F249624A2A
:10423000D24A424BB24B45618280044483294400F8
:10424000FD1963D409000040E1BF83D7C400637B3C
:10425000FB008397E40063877701A6855285829AE5
:104260003369A90093848406E1BF10499306450190
:1042700013D75540B6876356C7020A060A07FD8959
:1042800036963697B9C9130847001843130300023E
:104290003303B3403357B700636EC80098C311C3EC
:1042A00091073387D740098718C96394D700232A19
:1042B000050082808328080091071108B3986800E0
:1042C00033E7E80023AEE7FE0327C8FFE1B7110795
:1042D0008325C7FF910723AEB7FEE36AC7FED1B7B8
:1042E000930705FD93F7F70F25476367F70001155F
:1042F0009377F50F3E8582809307F5F993F7F70FD3
:10430000954663E5F600130595FBDDB71307F5FB4E
:104310001377F70F8147E3EFE6FC130595FDC9BF5F
:104320001D71D6C2AA8A428536C63AC286CECAC88E
:10433000D2C4DAC05EDE3E8B6ED63289AE8DA2CCA0
:10434000A6CACEC662DC66DA6AD8892D832B050040
:104350005E85EFD01FDDB387AB0083A60D0083C75A
:10436000F7FF7957158F3EC82A8A93872600930650
:1043700000033306F700BE84850703C5F7FF32C488
:10438000E309D5FEB13F631905105286DE85268507
:10439000EF10902B63170510338C440103450C007C
:1043A000813763010510E2849307000303C504000D
:1043B000630AF5003537854793391500E28C3EC412
:1043C000268C21A08504DDB7050C03450C00093FB0
:1043D00065FD5286DE856285EF10102709E9639B33
:1043E0000C00529CE28C03450C00DD3D4DE901447C
:1043F00063850C0033848C410A0483470C00130747
:1044000000056387E70013060007E28C639EC7047C
:1044100083471C001307B0026389E7081307D00223
:104420006389E708930C1C00014D03C50C004D3D4A
:104430009307F5FF93F7F70FE14563E3F50893075B
:1044400005FF850C03C50C003ECA593D9305F5FFD9
:1044500093F5F50F6148D247A948637EB804630419
:104460000D00B307F0403E9423A09D01638C090426
:10447000A247814491E39944F64066442685464923
:10448000D644B649264A964A064BF25B625CD25C39
:10449000425DB25D256182808149814C15B7050C72
:1044A00099B7268C0144854989BF014D930C2C0096
:1044B000ADBF054DE5BFB3871703AA97C11751B725
:1044C000E28C5DB7B3079C40FD1781451D476344EF
:1044D000F70A5685DD2D054693094501B307464188
:1044E000AA8D4E8D8148814C3ECA63E9840913052B
:1044F0004D0033053541098523209D0123A8AD00DA
:10450000931455006685EF00900C832B0900898C6D
:1045100063D89B0CB3847441A6856E85EF00907EB2
:104520002A8A05C91386F4FF935656408A06CE960A
:10453000944205473317C700758F054A19CB635955
:10454000CA009385E4FF6E85EF00D07B0D4A11E130
:10455000094AA6856E85EFF05FD12694032789006E
:10456000635F8708EE855685F52592479304300AE8
:1045700023A0070011B78505858791BF9307FCFF2E
:104580003EC40346FCFFC2476309F60293070002DC
:104590006397F80023209D018148110D814C03454C
:1045A000FCFF46CCEFF0DFD3E2483D8922433315D0
:1045B0001501B3ECAC00910815A052479307FCFF1E
:1045C0003383E700E36493FC1A855286DE8546CE8A
:1045D0001ACCEF1070076243F2484DF91A8C31B7CC
:1045E000014AE3DD74F7B3849B40EE852686568549
:1045F000EF00D02AAA8D058C9309450185B70327C2
:1046000049006355E40E330487406345740703276C
:10461000C9008946630AD7048D46630AD7048546D4
:10462000631BD70263998B026391EB020327490056
:10463000B2479304200698C30547924723A8ED008C
:1046400023A0E90023A0B70105BD9385FBFF6E857C
:10465000EF00506B61FDEE855685ED2B924793047C
:10466000000523A0070009BDE3170BFEC1B7E31F38
:104670000BFAD5B79304F4FF63180A0691C4A68514
:104680006E85EF0030682A8A13D754400A074E9788
:1046900018438545B3959500F98D99C1136A2A0091
:1046A000A2856E85B38B8B40EFF03FBC032449009D
:1046B0008944630B0A080327C9008946630AD702A5
:1046C0008D46630AD7028546631DD70013772A00FB
:1046D00009CB03A70900336AEA00137A1A00631EA4
:1046E0000A0093E404018DA0054A79BF8544D1B73F
:1046F0000547330B6741E3060BFE83A90D011387C2
:104700004D01FD55139A2900330647011443638375
:10471000B604850614C3894613874D016393D408F4
:1047200083260900FD16639F760193D65B408A06B7
:10473000369718438546B39B7601B3FBEB00638342
:104740000B00854493E40402924723A0B701B247CB
:1047500080C31DB31107232E07FEE369C7FA03A721
:104760008D0063C4E90283A54D0056858505B129F6
:1047700003A60D019385CD002A8B09060A06310593
:10478000512EEE855685F921DA8D03A70D0193068A
:10479000170011070A0723A8DD006E97854654C34A
:1047A0009DBF83A60D0163DCD90085456E85EFF0C2
:1047B000DFAB032789000504E35587F865B393FB56
:1047C000FB018544E3800BF852970325C7FF0125C1
:1047D00013070002B30B7741E34975FDA5B7A14765
:1047E0003386C7400A0693060002918E5C41184149
:1047F00011053398D70033670701B3D7C700232EBD
:10480000E5FE1CC1E364B5FE82801C416548850558
:1048100003C6F5FF850701E61CC10545828003C775
:1048200007009306F7FB93F6F60F6364D8001307AF
:104830000702E30EC7FC014582805D7152DC03AACA
:104840000500A6C24EDE93545A405AD88A0486C642
:10485000A2C4CAC056DA5ED662D466D26AD06ECE20
:10486000137AFA012A8BB289B29463030A00910485
:1048700083270B001389C4FF23AE04FECA8D4A842C
:104880000146814A814B214C930C00021D4D83C689
:104890001700138717003AC0A9CA368532C63EC42E
:1048A00036C2EFF0FFA3324649E59246A24763E7DE
:1048B000DC0263D37A036377B4016345CD00EE85F0
:1048C0002285313F214663F98900930DC4FF232ED1
:1048D00004FEDE8A6E840146824755BF930590022E
:1048E000639BB60889072320FB0063860B08637867
:1048F000B4019D4763C5C700EE852285CD3563FAB7
:104900008904CE8711040327C4FF910723AEE7FE75
:10491000E37A89FE910723AE07FEE37DF9FE832744
:10492000090091E76317390585472320F9001545EC
:10493000A1A00506850B6358CC00E3FF89F8232E60
:1049400004FE054671141C403D899207C98F1CC0A6
:1049500061B7E3060AFC93070002B38747417D5A1B
:10496000B357FA0003AAC4FF337AFA0023AE44FF18
:104970007DB771196DB71145B64026449644064976
:10498000F259625AD25A425BB25B225C925C025D7F
:10499000F24D616182800325C50E82801305050FEB
:1049A00082809387C1809C43885309E517B5FF1F18
:1049B0001305456D1305050F82801971A6DAAE84C3
:1049C0008395E500A2DC86DE328463DC050083D7B4
:1049D000C40023A0060093F7070885E7930700406B
:1049E0001DA0300836C6EF106050B246E34105FE08
:1049F0007247BD67F98F7977BA9793B717009CC252
:104A0000F1BF930700041CC0F6506654D65401450C
:104A10000961828083D7C500011122CC06CE26CA47
:104A20004AC8898B2E8489CF930774041CC01CC884
:104A300085475CC8F2406244D244424905618280A5
:104A400074003000AA84953FA2452A892685EF008C
:104A5000B03C01ED8317C40013F7072061FFF19B01
:104A600093E727002316F400C1B797F7FFFF93875A
:104A700007649CD48357C40008C008C893E707089C
:104A80002316F400A2475CC8B24791CF8315E40017
:104A90002685EF10604801C98357C400F19B93E756
:104AA00017002316F4008357C4003369F900231656
:104AB000240149B79387C180AA8588436F00D03508
:104AC00085E141116C00014511CA795581CA8347BE
:104AD00006009CC1034506003335A00041018280D9
:104AE000014519CA795589CA834706009CC1034507
:104AF00006003335A0008280828093F5F50F2A9658
:104B00006314C5000145828083470500E38DB7FE2D
:104B10000505FDB7B3C7A5008D8B3307C50081E739
:104B20008D4763EEC700AA876370E50A83C6050058
:104B300085078505A38FD7FEE3EAE7FE828093769B
:104B40003500AA8791CA83C6050085078505A38F0E
:104B5000D7FE93F63700FDB79376C7FF138606FEA0
:104B600063F0C70683A3050083A2450083AF8500D9
:104B700003AFC50083AE050103AE450103A3850164
:104B800083A8C5019385450223A0770003A8C5FF2C
:104B900023A2570023A4F70123A6E70123A8D701E6
:104BA00023AAC70123AC670023AE170193874702EE
:104BB00023AE07FF75B790419107910523AEC7FE5D
:104BC000E3EBD7FEE3E4E7F682805C51411122C4B7
:104BD0004AC006C626C22A842E8981EF4145D93DA6
:104BE00048D0232205002324050023200500232686
:104BF00005004450DC449DC758509317290058477E
:104C0000BA97884329E18544B3942401138654005C
:104C10000A0685452285EF00501319CD2322250170
:104C200004C525A01306100291452285EF00F0115E
:104C30005C50C8C4DC47E9F30145B24022449244C9
:104C4000024941018280184198C323280500232688
:104C50000500E5B75C51011122CC06CE2A8499EFFC
:104C600041452EC6EFF01FE5B24548D0232205008E
:104C700023240500232005002326050091C9545054
:104C8000DC4113972700DC46BA97984398C18CC340
:104C9000F24062440561828079714ECEAA894165F5
:104CA00022D426D22E84844906D64AD0D105014882
:104CB0007D159C419105050833F7A7003307C7020E
:104CC000C183B387C702369793560701698FB6979A
:104CD00093D60701C207BA9723AEF5FEE34B98FCC3
:104CE00095CE1C4463C5F4024C404E8536C68505FE
:104CF000E93D10489305C4002A8909060A063105D2
:104D0000EFF05FE1A2854E85B137B2464A849387C2
:104D100044008A07A297D4C3850404C82285B250F0
:104D2000225492540259F2494561828079719387E5
:104D3000860052CC368AA54622D426D24ECE2E8468
:104D4000B3C7D70206D64AD056CAAA89B2848546C6
:104D5000814563CBF6044E853AC6EFF01FE7324734
:104D600085471CC958C9A54763D39704930A940083
:104D70005689269405098346F9FFAA852946938614
:104D800006FD4E85113FE31789FE138484FF569478
:104D9000268963414903B250225492540259F24980
:104DA000624AD24A45618280860685055DB729043C
:104DB000A544F9BFB3079940A29783C60700AA8507
:104DC0002946938606FD4E85C13D0509D9B7417731
:104DD000698FAA87014519E3C2074145370700FFDC
:104DE0007D8F19E32105A207370700F07D8F19E3B6
:104DF00011059207370700C07D8F19E309058A075F
:104E000063C90700139717000505634407001305DE
:104E1000000282801C4113F777000DC393F6170040
:104E2000014799E613F7270011C785831CC1054781
:104E30003A85828089831CC10947DDBF93960701AB
:104E4000C182014799E2C183414793F6F70F99E286
:104E50002107A18393F6F70099E21107918393F656
:104E6000370099E20907898393F6170081E6858365
:104E7000050799C31CC16DBF1307000255BF41113F
:104E800022C42E84854506C6EFF03FD440C9B24007
:104E90002244054718C94101828098491C4A79710A
:104EA00026D206D622D44AD04ECEAE846354F70022
:104EB000B2842E8683A90401032906019C44CC40B8
:104EC0003384290163D38700850532C6EFF0FFCF15
:104ED000324613084501131324004293C28763ED41
:104EE000670293854401939829005106131E2900F7
:104EF000C166AE98329EFD166364C6036356800099
:104F0000711383270300F1CB00C9B250225492548D
:104F10000259F2494561828023A007009107C1B779
:104F2000832F0600B3FFDF00638A0F04428FAE8237
:104F3000814403A7020083230F00110FB37ED70023
:104F4000B38EFE03B3F7D30093D303019102BE9E49
:104F500093570701B387F703A69E13D70E01B3FE3D
:104F6000DE009E97BA9793D40701C207B3E7D70133
:104F7000232EFFFEE3EF12FB23209F008352260027
:104F8000638A020483270800C28E2E8F814F032775
:104F90000F0083D32E00F58F758F33075702910EC4
:104FA000110F1E977E97931F0701B3E7FF0023AEF3
:104FB000FEFE8357EFFF83AF0E004183B387570296
:104FC000B3FFDF00FE97BA9793DF0701E3611FFD90
:104FD00023A0FE001106110805B77D1405B70111C5
:104FE00026CA4AC84EC606CE22CC52C49377360093
:104FF0002A89B284AE8989CFFD17173700001307BD
:10500000E7578A07BA9790438146EFF0FFC8AA890D
:105010008984A5CC8327490291EF4145EFF09FA9F0
:105020002322A902232205002324050023200500B2
:1050300023260500032A490203248A0019E8930560
:1050400010274A85EFF0BFE32324AA002A842320F7
:10505000050093F7140081CFCE8522864A85EFF0B4
:10506000DFE32A8ACE854A85EFF0DFBED2898584C8
:1050700089CC084009E92286A2854A85EFF0FFE144
:1050800008C0232005002A84E9B7F24062444E8517
:10509000D2444249B249224A05618280797126D2BE
:1050A000AE844ECE83A9040122D4CC411354564081
:1050B0009C44A2994AD056CA06D652CCAA8A1389D1
:1050C000190063C42709568532C6EFF01FB0324677
:1050D000930745012A8ABE8601479106634A8706DF
:1050E00063530400014494480A04338787008A0606
:1050F000938744017D8ABE9625C2130800023308B7
:10510000C84081458843110791073315C500C98DF3
:10511000232EB7FE83A5C7FFB3D50501E3E4D7FE71
:105120000CC399C1138929007D1923282A015685AA
:10513000A685EFF03FB2B2502254528592540259E4
:10514000F249624AD24A456182808505860795BF49
:1051500023AE06FE050751B7910703A6C7FF110747
:10516000232EC7FEE3EAD7FEC1B71C499849998FA1
:105170008DE30A075105D105B306E500BA95F1168E
:10518000F115904298416308E600FD576363E6001D
:1051900085473E858280E364D5FEE5BF011126CABE
:1051A000AE844EC6B285AA89268522CC06CE4AC8D0
:1051B0003284653F05E181454E85EFF01FA18547AB
:1051C0001CC9232A0500F2406244D2444249B24934
:1051D00005618280054963460500A287014926844E
:1051E000BE844C404E85EFF05F9E0323040183A8EC
:1051F000040113064401131E2300138844018A0886
:10520000C16E23262501329EC29893064501014FA7
:10521000FD1E1842832F08009106B375D701B3F71E
:10522000DF01FA959D8D93DF0F0193570701B38737
:10523000F74113D70541BA9713DF0741B3F5D501FD
:10524000C207CD8F110823AEF6FE1106E36318FDE9
:10525000C165FD156368C601F1169C4295C72328F8
:10526000650095B71C429106110633F7B7007A978F
:1052700013580741C183C29713DF07416D8FC207DF
:10528000D98F23AEF6FEF9B77D13F9B7B707F07FD4
:10529000FD8DB707C0FCBE956355B00081473E85C4
:1052A0008280B305B04093D745414D476347F7002F
:1052B000B7050800B3D5F540D5B71387C7FEF94643
:1052C00081458547E3CDE6FCB7070080B3D7E7000B
:1052D000F9B7797126D204494ECE930945018A0463
:1052E000CE9422D403A4C4FF4AD02EC6228506D66B
:1052F000EFF0FFADB24593070002898F9CC1A9472B
:105300001389C4FF63CDA702AD47898F3707F03FEC
:10531000B356F400D98E014763F4290103A784FF33
:1053200055053315A400B357F700C98FB250225466
:1053300092540259F2493E85B68545618280814783
:1053400063F6290183A784FF138984FF551505C9D6
:10535000130700023306A74033D7C7003314A40055
:10536000598CB706F03FC18E014763F4290103272A
:10537000C9FFB397A7003357C700D98F45BFB706FA
:10538000F03FC18E65B7797122D42E84854526D22F
:105390004AD0B2844ECE52CC3A8906D6368AEFF045
:1053A000DF82370710009307F7FFE58FD18093F472
:1053B000F47FAA89B5E03EC62DC4280022C4EFF0D0
:1053C0007FA5A24621CD324793070002898FB317EC
:1053D000F700D58F3357A70023AAF9003AC6324405
:1053E00023AC890033348000050423A88900B9C4A4
:1053F0009384D4BCAA949307500323209A00338546
:10540000A7402320A900B25022544E85925402593D
:10541000F249624A45618280D98F71BF23AAD900BF
:105420007DBF6800EFF01F9FB247130505020544DA
:1054300023AAF900854723A8F90055BF9317240034
:105440001305E5BCCE972320AA00884B1604EFF085
:105450001F98098C232089007DB779714AD02E8945
:105460002C0006D622D426D24ECE52CC2A8AEFF079
:105470005FE6AA89AE842E844A856C00EFF07FE552
:105480008327090103270A01A2461D8FB247160789
:105490009D8EB307D7006355F002D2072E86338462
:1054A00097003287A2852A86BA864E85EF10C02DD6
:1054B000B250225492540259F249624A45618280A4
:1054C0003707F0FFB387E7023386B700D9BF93876A
:1054D000F5FF184A958785078A07930646010A074C
:1054E000AA97369763E5E600636AF5008280910625
:1054F00003A6C6FF1105232EC5FEEDB71105232E09
:1055000005FEDDB7144993D755401307450163C71E
:10551000F60263DFD700FD8981CD93962700BA9606
:1055200090420545B356B600B395B600631EB6006B
:105530008A07BA976366F70001458280B687CDBFB8
:10554000F1179443E5DA054582803386C5020111DF
:1055500022CC06CEB28532C6C1202A8409C5324685
:105560008145EFA0FFC32285F2406244056182803D
:10557000DDC183A7C5FF411122C406C626C213841C
:10558000C5FF63D307003E94AA84EF0010239387DE
:1055900001839C4381EF2322040023A881822244BB
:1055A000B2402685924441016F005021637EF40091
:1055B00014403307D4006396E7009843DC433697E2
:1055C00018C05CC0D9BFBA87D84319C3E37DE4FED5
:1055D00094433386D700631F86001040B29694C36D
:1055E0003386D700E31DC7FA10435843B29694C3DD
:1055F000D8C375B76375C400B1479CC04DB71040A0
:10560000B306C4006316D70014435843B29614C0BF
:1056100058C0C0C369B78280011126CA938435007F
:10562000F19806CE22CC4AC84EC6A104B14763F316
:10563000F404B14463E2B4042A89EF00101893879C
:10564000018398433A8439E0938741839C4391E7EF
:1056500081454A85012F23AAA182A6854A8519275B
:10566000FD5963193507B1472320F9004A85EF003A
:10567000F01429A0E3D004FCB1471CC10145F2405D
:105680006244D2444249B249056182801C40858F00
:1056900063CF0702AD4663F6F6001CC03E9404C01B
:1056A00031A05C406313870223A8F1824A85EF0092
:1056B000F0101305B4009307440061993307F540D7
:1056C0005DDF3A94898F1CC05DBF5CC3C5B722877C
:1056D000404095BF130435007198E30285FCB30583
:1056E000A4404A854125E31C35FBB5BF01114AC8DA
:1056F00003A9850022CC52C45AC006CE26CA4EC683
:1057000056C22E84328B368A63EE260983D7C500B3
:1057100013F7074851C704408C495848AA8AB389EF
:10572000B4408D44B384E4020947B3C4E402138750
:1057300016004E9763F3E400BA8493F70740D9C389
:10574000A6855685EFF05FED2A890DE5B14723A0C8
:10575000FA008357C4007D5593E707042316F4002D
:10576000F2406244D2444249B249224A924A024B30
:10577000056182800C484E86EFF0CFB98357C40094
:1057800093F7F7B793E707082316F40023282401BB
:1057900044C84E99B38434412320240104C452895F
:1057A00063732A01528908404A86DA85EF00407CFB
:1057B0001C440145B38727411CC41C403E9923204B
:1057C000240179BF26865685EF00607F2A895DFD1A
:1057D0000C485685EFF0DFD995BF83D7C5007171AE
:1057E00026D34AD14ECF06D722D552CD56CB5AC951
:1057F0005EC762C566C393F70708AA892E89B2847B
:10580000B9C39C49A9E39305000436C6EFF0DFE075
:105810002320A9002328A900B24615E1B14723A0FF
:10582000F9007D55BA502A549A540A59FA496A4ADD
:10583000DA4A4A4BBA4B2A4C9A4C4D618280930704
:105840000004232AF90093070002A30CF102930736
:10585000000302DA230DF10236CE930B5002973A81
:105860000000938A6AD2054C294B268483470400A2
:1058700099C3639D7709B30C9440638E0C00E68650
:105880002686CA854E85EFF07FE6FD576302F51A3E
:10589000D256E69636DA83470400638B0718FD5725
:1058A0009304140002D002D63ED202D4A301010612
:1058B00082DC83C5040015465685EFF00FA41384DF
:1058C0001400825731E513F7070109C713070002D7
:1058D000A301E10613F7870009C71307B002A3016C
:1058E000E10683C604001307A002638BE602B257E9
:1058F00026848146254603470400930514001307B8
:1059000007FD6374E6068DC63ED61DA00504B9BF2B
:10591000330555413315AC00C98F3ED0A28451BF29
:10592000724793064700184336CE634907023AD6BA
:10593000034704009307E002631FF70403471400C2
:105940009307A002631BF702F2470904138747007D
:105950009C433ACE63C107023ED235A83307E040EC
:1059600093E727003AD63ED0E1B7B3876703854671
:105970002E84BA9749B7FD57C5B7050402D28146B0
:10598000814725460347040093051400130707FDCC
:105990006378E606F1F2834504000D4617350000F2
:1059A000130505BFEFF06F9511CD97370000938772
:1059B00027BE1D8D93070004B397A7000255050469
:1059C0005D8D2AD083450400194617350000130564
:1059D00065BC93041400230CB102EFF00F9235C1A3
:1059E00097C7FFFF9387279C95E70257F2471377E6
:1059F000071009CF91073ECED257D2973EDAB5B500
:105A0000B387670385462E84BA97ADBF9D07E19B98
:105A1000A107D5B7780897060000938666CD4A8619
:105A20000C104E85EFB0FF97FD572A8AE316F5FC60
:105A30008357C9007D5593F70704E39507DE525558
:105A4000D5B3780897060000938686CA4A860C105C
:105A50004E85EFB0DFF1C9BF1C46FD171CC663DAE7
:105A60000700184E63C5E700A9476394F5006FD09F
:105A7000EFCF1C422E851387170018C22380B70072
:105A80008280011122CC26CA4AC84EC652C406CE14
:105A90002A89AE893284B304D6007D5A63149400F7
:105AA000014509A8834504004E864A8575370504DB
:105AB000E31645FFF2406244D2444249B249224AC9
:105AC00005618280357122CD26CB4AC94EC706CFEB
:105AD00052C556C35AC1DEDEE2DCE6DAAA89AE84DC
